{
  "contractName": "TransferManager",
  "abi": [
    {
      "constant": true,
      "inputs": [],
      "name": "securityWindow",
      "outputs": [
        {
          "name": "",
          "type": "uint256"
        }
      ],
      "payable": false,
      "stateMutability": "view",
      "type": "function"
    },
    {
      "constant": true,
      "inputs": [
        {
          "name": "_wallet",
          "type": "address"
        }
      ],
      "name": "getNonce",
      "outputs": [
        {
          "name": "nonce",
          "type": "uint256"
        }
      ],
      "payable": false,
      "stateMutability": "view",
      "type": "function"
    },
    {
      "constant": true,
      "inputs": [
        {
          "name": "_wallet",
          "type": "address"
        }
      ],
      "name": "getCurrentLimit",
      "outputs": [
        {
          "name": "_currentLimit",
          "type": "uint256"
        }
      ],
      "payable": false,
      "stateMutability": "view",
      "type": "function"
    },
    {
      "constant": false,
      "inputs": [
        {
          "name": "_wallet",
          "type": "address"
        },
        {
          "name": "_module",
          "type": "address"
        }
      ],
      "name": "addModule",
      "outputs": [],
      "payable": false,
      "stateMutability": "nonpayable",
      "type": "function"
    },
    {
      "constant": true,
      "inputs": [
        {
          "name": "_wallet",
          "type": "address"
        }
      ],
      "name": "getDailyUnspent",
      "outputs": [
        {
          "name": "_unspent",
          "type": "uint256"
        },
        {
          "name": "_periodEnd",
          "type": "uint64"
        }
      ],
      "payable": false,
      "stateMutability": "view",
      "type": "function"
    },
    {
      "constant": true,
      "inputs": [],
      "name": "securityPeriod",
      "outputs": [
        {
          "name": "",
          "type": "uint256"
        }
      ],
      "payable": false,
      "stateMutability": "view",
      "type": "function"
    },
    {
      "constant": true,
      "inputs": [],
      "name": "oldLimitManager",
      "outputs": [
        {
          "name": "",
          "type": "address"
        }
      ],
      "payable": false,
      "stateMutability": "view",
      "type": "function"
    },
    {
      "constant": true,
      "inputs": [],
      "name": "transferStorage",
      "outputs": [
        {
          "name": "",
          "type": "address"
        }
      ],
      "payable": false,
      "stateMutability": "view",
      "type": "function"
    },
    {
      "constant": false,
      "inputs": [
        {
          "name": "_token",
          "type": "address"
        }
      ],
      "name": "recoverToken",
      "outputs": [],
      "payable": false,
      "stateMutability": "nonpayable",
      "type": "function"
    },
    {
      "constant": true,
      "inputs": [
        {
          "name": "_wallet",
          "type": "address"
        }
      ],
      "name": "getPendingLimit",
      "outputs": [
        {
          "name": "_pendingLimit",
          "type": "uint256"
        },
        {
          "name": "_changeAfter",
          "type": "uint64"
        }
      ],
      "payable": false,
      "stateMutability": "view",
      "type": "function"
    },
    {
      "constant": false,
      "inputs": [
        {
          "name": "_wallet",
          "type": "address"
        },
        {
          "name": "_data",
          "type": "bytes"
        },
        {
          "name": "_nonce",
          "type": "uint256"
        },
        {
          "name": "_signatures",
          "type": "bytes"
        },
        {
          "name": "_gasPrice",
          "type": "uint256"
        },
        {
          "name": "_gasLimit",
          "type": "uint256"
        }
      ],
      "name": "execute",
      "outputs": [
        {
          "name": "success",
          "type": "bool"
        }
      ],
      "payable": false,
      "stateMutability": "nonpayable",
      "type": "function"
    },
    {
      "constant": true,
      "inputs": [],
      "name": "priceProvider",
      "outputs": [
        {
          "name": "",
          "type": "address"
        }
      ],
      "payable": false,
      "stateMutability": "view",
      "type": "function"
    },
    {
      "constant": true,
      "inputs": [
        {
          "name": "",
          "type": "address"
        }
      ],
      "name": "relayer",
      "outputs": [
        {
          "name": "nonce",
          "type": "uint256"
        }
      ],
      "payable": false,
      "stateMutability": "view",
      "type": "function"
    },
    {
      "constant": true,
      "inputs": [],
      "name": "isOnlyOwnerModule",
      "outputs": [
        {
          "name": "",
          "type": "bytes4"
        }
      ],
      "payable": false,
      "stateMutability": "pure",
      "type": "function"
    },
    {
      "constant": true,
      "inputs": [],
      "name": "defaultLimit",
      "outputs": [
        {
          "name": "",
          "type": "uint256"
        }
      ],
      "payable": false,
      "stateMutability": "view",
      "type": "function"
    },
    {
      "constant": true,
      "inputs": [
        {
          "name": "_wallet",
          "type": "address"
        }
      ],
      "name": "isLimitDisabled",
      "outputs": [
        {
          "name": "_limitDisabled",
          "type": "bool"
        }
      ],
      "payable": false,
      "stateMutability": "view",
      "type": "function"
    },
    {
      "inputs": [
        {
          "name": "_registry",
          "type": "address"
        },
        {
          "name": "_transferStorage",
          "type": "address"
        },
        {
          "name": "_guardianStorage",
          "type": "address"
        },
        {
          "name": "_priceProvider",
          "type": "address"
        },
        {
          "name": "_securityPeriod",
          "type": "uint256"
        },
        {
          "name": "_securityWindow",
          "type": "uint256"
        },
        {
          "name": "_defaultLimit",
          "type": "uint256"
        },
        {
          "name": "_oldLimitManager",
          "type": "address"
        }
      ],
      "payable": false,
      "stateMutability": "nonpayable",
      "type": "constructor"
    },
    {
      "anonymous": false,
      "inputs": [
        {
          "indexed": true,
          "name": "wallet",
          "type": "address"
        },
        {
          "indexed": true,
          "name": "target",
          "type": "address"
        },
        {
          "indexed": false,
          "name": "whitelistAfter",
          "type": "uint64"
        }
      ],
      "name": "AddedToWhitelist",
      "type": "event"
    },
    {
      "anonymous": false,
      "inputs": [
        {
          "indexed": true,
          "name": "wallet",
          "type": "address"
        },
        {
          "indexed": true,
          "name": "target",
          "type": "address"
        }
      ],
      "name": "RemovedFromWhitelist",
      "type": "event"
    },
    {
      "anonymous": false,
      "inputs": [
        {
          "indexed": true,
          "name": "wallet",
          "type": "address"
        },
        {
          "indexed": true,
          "name": "id",
          "type": "bytes32"
        },
        {
          "indexed": true,
          "name": "executeAfter",
          "type": "uint256"
        },
        {
          "indexed": false,
          "name": "token",
          "type": "address"
        },
        {
          "indexed": false,
          "name": "to",
          "type": "address"
        },
        {
          "indexed": false,
          "name": "amount",
          "type": "uint256"
        },
        {
          "indexed": false,
          "name": "data",
          "type": "bytes"
        }
      ],
      "name": "PendingTransferCreated",
      "type": "event"
    },
    {
      "anonymous": false,
      "inputs": [
        {
          "indexed": true,
          "name": "wallet",
          "type": "address"
        },
        {
          "indexed": true,
          "name": "id",
          "type": "bytes32"
        }
      ],
      "name": "PendingTransferExecuted",
      "type": "event"
    },
    {
      "anonymous": false,
      "inputs": [
        {
          "indexed": true,
          "name": "wallet",
          "type": "address"
        },
        {
          "indexed": true,
          "name": "id",
          "type": "bytes32"
        }
      ],
      "name": "PendingTransferCanceled",
      "type": "event"
    },
    {
      "anonymous": false,
      "inputs": [
        {
          "indexed": true,
          "name": "wallet",
          "type": "address"
        },
        {
          "indexed": true,
          "name": "newLimit",
          "type": "uint256"
        },
        {
          "indexed": true,
          "name": "startAfter",
          "type": "uint64"
        }
      ],
      "name": "LimitChanged",
      "type": "event"
    },
    {
      "anonymous": false,
      "inputs": [
        {
          "indexed": true,
          "name": "wallet",
          "type": "address"
        },
        {
          "indexed": true,
          "name": "token",
          "type": "address"
        },
        {
          "indexed": true,
          "name": "amount",
          "type": "uint256"
        },
        {
          "indexed": false,
          "name": "to",
          "type": "address"
        },
        {
          "indexed": false,
          "name": "data",
          "type": "bytes"
        }
      ],
      "name": "Transfer",
      "type": "event"
    },
    {
      "anonymous": false,
      "inputs": [
        {
          "indexed": true,
          "name": "wallet",
          "type": "address"
        },
        {
          "indexed": true,
          "name": "token",
          "type": "address"
        },
        {
          "indexed": false,
          "name": "amount",
          "type": "uint256"
        },
        {
          "indexed": false,
          "name": "spender",
          "type": "address"
        }
      ],
      "name": "Approved",
      "type": "event"
    },
    {
      "anonymous": false,
      "inputs": [
        {
          "indexed": true,
          "name": "wallet",
          "type": "address"
        },
        {
          "indexed": true,
          "name": "to",
          "type": "address"
        },
        {
          "indexed": false,
          "name": "amount",
          "type": "uint256"
        },
        {
          "indexed": false,
          "name": "data",
          "type": "bytes"
        }
      ],
      "name": "CalledContract",
      "type": "event"
    },
    {
      "anonymous": false,
      "inputs": [
        {
          "indexed": true,
          "name": "wallet",
          "type": "address"
        },
        {
          "indexed": true,
          "name": "success",
          "type": "bool"
        },
        {
          "indexed": false,
          "name": "signedHash",
          "type": "bytes32"
        }
      ],
      "name": "TransactionExecuted",
      "type": "event"
    },
    {
      "anonymous": false,
      "inputs": [
        {
          "indexed": false,
          "name": "name",
          "type": "bytes32"
        }
      ],
      "name": "ModuleCreated",
      "type": "event"
    },
    {
      "anonymous": false,
      "inputs": [
        {
          "indexed": false,
          "name": "wallet",
          "type": "address"
        }
      ],
      "name": "ModuleInitialised",
      "type": "event"
    },
    {
      "constant": false,
      "inputs": [
        {
          "name": "_wallet",
          "type": "address"
        }
      ],
      "name": "init",
      "outputs": [],
      "payable": false,
      "stateMutability": "nonpayable",
      "type": "function"
    },
    {
      "constant": false,
      "inputs": [
        {
          "name": "_wallet",
          "type": "address"
        },
        {
          "name": "_token",
          "type": "address"
        },
        {
          "name": "_to",
          "type": "address"
        },
        {
          "name": "_amount",
          "type": "uint256"
        },
        {
          "name": "_data",
          "type": "bytes"
        }
      ],
      "name": "transferToken",
      "outputs": [],
      "payable": false,
      "stateMutability": "nonpayable",
      "type": "function"
    },
    {
      "constant": false,
      "inputs": [
        {
          "name": "_wallet",
          "type": "address"
        },
        {
          "name": "_token",
          "type": "address"
        },
        {
          "name": "_spender",
          "type": "address"
        },
        {
          "name": "_amount",
          "type": "uint256"
        }
      ],
      "name": "approveToken",
      "outputs": [],
      "payable": false,
      "stateMutability": "nonpayable",
      "type": "function"
    },
    {
      "constant": false,
      "inputs": [
        {
          "name": "_wallet",
          "type": "address"
        },
        {
          "name": "_contract",
          "type": "address"
        },
        {
          "name": "_value",
          "type": "uint256"
        },
        {
          "name": "_data",
          "type": "bytes"
        }
      ],
      "name": "callContract",
      "outputs": [],
      "payable": false,
      "stateMutability": "nonpayable",
      "type": "function"
    },
    {
      "constant": false,
      "inputs": [
        {
          "name": "_wallet",
          "type": "address"
        },
        {
          "name": "_token",
          "type": "address"
        },
        {
          "name": "_contract",
          "type": "address"
        },
        {
          "name": "_amount",
          "type": "uint256"
        },
        {
          "name": "_data",
          "type": "bytes"
        }
      ],
      "name": "approveTokenAndCallContract",
      "outputs": [],
      "payable": false,
      "stateMutability": "nonpayable",
      "type": "function"
    },
    {
      "constant": false,
      "inputs": [
        {
          "name": "_wallet",
          "type": "address"
        },
        {
          "name": "_target",
          "type": "address"
        }
      ],
      "name": "addToWhitelist",
      "outputs": [],
      "payable": false,
      "stateMutability": "nonpayable",
      "type": "function"
    },
    {
      "constant": false,
      "inputs": [
        {
          "name": "_wallet",
          "type": "address"
        },
        {
          "name": "_target",
          "type": "address"
        }
      ],
      "name": "removeFromWhitelist",
      "outputs": [],
      "payable": false,
      "stateMutability": "nonpayable",
      "type": "function"
    },
    {
      "constant": false,
      "inputs": [
        {
          "name": "_wallet",
          "type": "address"
        },
        {
          "name": "_token",
          "type": "address"
        },
        {
          "name": "_to",
          "type": "address"
        },
        {
          "name": "_amount",
          "type": "uint256"
        },
        {
          "name": "_data",
          "type": "bytes"
        },
        {
          "name": "_block",
          "type": "uint256"
        }
      ],
      "name": "executePendingTransfer",
      "outputs": [],
      "payable": false,
      "stateMutability": "nonpayable",
      "type": "function"
    },
    {
      "constant": false,
      "inputs": [
        {
          "name": "_wallet",
          "type": "address"
        },
        {
          "name": "_id",
          "type": "bytes32"
        }
      ],
      "name": "cancelPendingTransfer",
      "outputs": [],
      "payable": false,
      "stateMutability": "nonpayable",
      "type": "function"
    },
    {
      "constant": false,
      "inputs": [
        {
          "name": "_wallet",
          "type": "address"
        },
        {
          "name": "_newLimit",
          "type": "uint256"
        }
      ],
      "name": "changeLimit",
      "outputs": [],
      "payable": false,
      "stateMutability": "nonpayable",
      "type": "function"
    },
    {
      "constant": false,
      "inputs": [
        {
          "name": "_wallet",
          "type": "address"
        }
      ],
      "name": "disableLimit",
      "outputs": [],
      "payable": false,
      "stateMutability": "nonpayable",
      "type": "function"
    },
    {
      "constant": true,
      "inputs": [
        {
          "name": "_wallet",
          "type": "address"
        },
        {
          "name": "_target",
          "type": "address"
        }
      ],
      "name": "isWhitelisted",
      "outputs": [
        {
          "name": "_isWhitelisted",
          "type": "bool"
        }
      ],
      "payable": false,
      "stateMutability": "view",
      "type": "function"
    },
    {
      "constant": true,
      "inputs": [
        {
          "name": "_wallet",
          "type": "address"
        },
        {
          "name": "_id",
          "type": "bytes32"
        }
      ],
      "name": "getPendingTransfer",
      "outputs": [
        {
          "name": "_executeAfter",
          "type": "uint64"
        }
      ],
      "payable": false,
      "stateMutability": "view",
      "type": "function"
    },
    {
      "constant": true,
      "inputs": [
        {
          "name": "_data",
          "type": "bytes"
        },
        {
          "name": "_signature",
          "type": "bytes"
        }
      ],
      "name": "isValidSignature",
      "outputs": [
        {
          "name": "",
          "type": "bytes4"
        }
      ],
      "payable": false,
      "stateMutability": "view",
      "type": "function"
    },
    {
      "constant": true,
      "inputs": [
        {
          "name": "_msgHash",
          "type": "bytes32"
        },
        {
          "name": "_signature",
          "type": "bytes"
        }
      ],
      "name": "isValidSignature",
      "outputs": [
        {
          "name": "",
          "type": "bytes4"
        }
      ],
      "payable": false,
      "stateMutability": "view",
      "type": "function"
    }
  ],
  "bytecode": "0x608060405234801561001057600080fd5b5060405161010080620047a0833981018060405261010081101561003357600080fd5b5080516020808301516040808501516060860151608087015160a088015160c089015160e09099015160008054600160a060020a03808c16600160a060020a031992831617909255600180549288169290911691909117905585517f5472616e736665724d616e6167657200000000000000000000000000000000008082529651999a979995989497939692959394919385938c938b9391927f3019c8fc80239e3dff8f781212ae2004839c2cb61d6c70acd279ac65392145df9281900390910190a150505060045560088054600160a060020a03988916600160a060020a031991821617909155600980549689169682169690961790955560069390935550600755600a805491909416911617909155505061464a80620001566000396000f3fe608060405234801561001057600080fd5b50600436106101e85760003560e060020a90048063961bfeee11610113578063b888879e116100a6578063e26b013b11610075578063e26b013b1461095f578063f8d3277d14610967578063f9f6499e14610995578063fd6ac309146109bb576101e8565b8063b888879e146108e0578063c9b5ef8e146108e8578063d490da4d1461090e578063e1ee38ec14610916576101e8565b8063aacaaf88116100e2578063aacaaf881461076a578063b20f3f371461085a578063b377a9d514610886578063b6b35272146108b2576101e8565b8063961bfeee146106f05780639be65a60146106f8578063a0aec1051461071e578063a3411c0a14610744576101e8565b80632df546f41161018b5780635ed4bf811161015a5780635ed4bf81146105e45780637cb8f8ba1461067c5780637cc0d906146106c457806395813db4146106cc576101e8565b80632df546f4146104ca57806343cd5c7e1461056257806357518243146105885780635a1db8c4146105b6576101e8565b80631626ba7e116101c75780631626ba7e146102dd57806319ab453c146103bc57806320c13b0b146103e25780632d0335ab146104a4576101e8565b80626fda35146101ed57806309d22c8e1461020757806312ef080d146102a1575b600080fd5b6101f5610a4b565b60408051918252519081900360200190f35b61029f600480360360a081101561021d57600080fd5b600160a060020a03823581169260208101358216926040820135909216916060820135919081019060a08101608082013564010000000081111561026057600080fd5b82018360208201111561027257600080fd5b8035906020019184600183028401116401000000008311171561029457600080fd5b509092509050610a51565b005b61029f600480360360808110156102b757600080fd5b50600160a060020a03813581169160208101358216916040820135169060600135610e1b565b61038a600480360360408110156102f357600080fd5b8135919081019060408101602082013564010000000081111561031557600080fd5b82018360208201111561032757600080fd5b8035906020019184600183028401116401000000008311171561034957600080fd5b91908080601f016020809104026020016040519081016040528093929190818152602001838380828437600092019190915250929550611119945050505050565b604080517bffffffffffffffffffffffffffffffffffffffffffffffffffffffff199092168252519081900360200190f35b61029f600480360360208110156103d257600080fd5b5035600160a060020a0316611220565b61038a600480360360408110156103f857600080fd5b81019060208101813564010000000081111561041357600080fd5b82018360208201111561042557600080fd5b8035906020019184600183028401116401000000008311171561044757600080fd5b91939092909160208101903564010000000081111561046557600080fd5b82018360208201111561047757600080fd5b8035906020019184600183028401116401000000008311171561049957600080fd5b5090925090506117da565b6101f5600480360360208110156104ba57600080fd5b5035600160a060020a031661188e565b61029f600480360360a08110156104e057600080fd5b600160a060020a03823581169260208101358216926040820135909216916060820135919081019060a08101608082013564010000000081111561052357600080fd5b82018360208201111561053557600080fd5b8035906020019184600183028401116401000000008311171561055757600080fd5b5090925090506118a9565b6101f56004803603602081101561057857600080fd5b5035600160a060020a0316611c2c565b61029f6004803603604081101561059e57600080fd5b50600160a060020a0381358116916020013516611c84565b61029f600480360360408110156105cc57600080fd5b50600160a060020a0381358116916020013516611ef3565b61029f600480360360c08110156105fa57600080fd5b600160a060020a03823581169260208101358216926040820135909216916060820135919081019060a08101608082013564010000000081111561063d57600080fd5b82018360208201111561064f57600080fd5b8035906020019184600183028401116401000000008311171561067157600080fd5b9193509150356120ae565b6106a26004803603602081101561069257600080fd5b5035600160a060020a03166123eb565b6040805192835267ffffffffffffffff90911660208301528051918290030190f35b6101f561247e565b6106d4612484565b60408051600160a060020a039092168252519081900360200190f35b6106d4612493565b61029f6004803603602081101561070e57600080fd5b5035600160a060020a03166124a2565b6106a26004803603602081101561073457600080fd5b5035600160a060020a03166125d5565b61029f6004803603602081101561075a57600080fd5b5035600160a060020a031661263b565b610846600480360360c081101561078057600080fd5b600160a060020a0382351691908101906040810160208201356401000000008111156107ab57600080fd5b8201836020820111156107bd57600080fd5b803590602001918460018302840111640100000000831117156107df57600080fd5b9193909282359260408101906020013564010000000081111561080157600080fd5b82018360208201111561081357600080fd5b8035906020019184600183028401116401000000008311171561083557600080fd5b919350915080359060200135612762565b604080519115158252519081900360200190f35b61029f6004803603604081101561087057600080fd5b50600160a060020a038135169060200135612a40565b61029f6004803603604081101561089c57600080fd5b50600160a060020a038135169060200135612b63565b610846600480360360408110156108c857600080fd5b50600160a060020a0381358116916020013516612d46565b6106d4612df8565b6101f5600480360360208110156108fe57600080fd5b5035600160a060020a0316612e07565b61038a612e19565b6109426004803603604081101561092c57600080fd5b50600160a060020a038135169060200135612e3d565b6040805167ffffffffffffffff9092168252519081900360200190f35b6101f5612e64565b61029f6004803603604081101561097d57600080fd5b50600160a060020a0381358116916020013516612e6a565b610846600480360360208110156109ab57600080fd5b5035600160a060020a03166130aa565b61029f600480360360808110156109d157600080fd5b600160a060020a03823581169260208101359091169160408201359190810190608081016060820135640100000000811115610a0c57600080fd5b820183602082011115610a1e57600080fd5b80359060200191846001830284011164010000000083111715610a4057600080fd5b5090925090506130c6565b60075481565b8533301480610a655750610a6581336132c3565b1515610aa55760405160e560020a62461bcd0281526004018080602001828103825260238152602001806145fc6023913960400191505060405180910390fd5b6001546040805160e260020a631293efbb028152600160a060020a03808b16600483015291518a939290921691634a4fbeec91602480820192602092909190829003018186803b158015610af857600080fd5b505afa158015610b0c573d6000803e3d6000fd5b505050506040513d6020811015610b2257600080fd5b505115610b67576040805160e560020a62461bcd02815260206004820152601b602482015260008051602061458d833981519152604482015290519081900360640190fd5b610b718887613348565b610b7b8887612d46565b15610bd457610b8c888888886134eb565b610bcf8887600087878080601f0160208091040260200160405190810160405280939291908181526020018383808284376000920191909152506135bf92505050565b610e11565b604080517fdd62ed3e000000000000000000000000000000000000000000000000000000008152600160a060020a038a81166004830152888116602483015291516000928a169163dd62ed3e916044808301926020929190829003018186803b158015610c4057600080fd5b505afa158015610c54573d6000803e3d6000fd5b505050506040513d6020811015610c6a57600080fd5b50519050808611610cbd57610cb88988600088888080601f0160208091040260200160405190810160405280939291908181526020018383808284376000920191909152506135bf92505050565b610e0f565b600954604080517fce55c85200000000000000000000000000000000000000000000000000000000815283890360048201819052600160a060020a038c8116602484015292519093600093169163ce55c852916044808301926020929190829003018186803b158015610d2f57600080fd5b505afa158015610d43573d6000803e3d6000fd5b505050506040513d6020811015610d5957600080fd5b50519050610d678b82613687565b1515610dbd576040805160e560020a62461bcd02815260206004820152601d60248201527f544d3a20417070726f76652061626f7665206461696c79206c696d6974000000604482015290519081900360640190fd5b610dc98b8b8b8b6134eb565b610e0c8b8a60008a8a8080601f0160208091040260200160405190810160405280939291908181526020018383808284376000920191909152506135bf92505050565b50505b505b5050505050505050565b8333301480610e2f5750610e2f81336132c3565b1515610e6f5760405160e560020a62461bcd0281526004018080602001828103825260238152602001806145fc6023913960400191505060405180910390fd5b6001546040805160e260020a631293efbb028152600160a060020a038089166004830152915188939290921691634a4fbeec91602480820192602092909190829003018186803b158015610ec257600080fd5b505afa158015610ed6573d6000803e3d6000fd5b505050506040513d6020811015610eec57600080fd5b505115610f31576040805160e560020a62461bcd02815260206004820152601b602482015260008051602061458d833981519152604482015290519081900360640190fd5b610f3b8685612d46565b15610f5157610f4c868686866134eb565b611111565b604080517fdd62ed3e000000000000000000000000000000000000000000000000000000008152600160a060020a0388811660048301528681166024830152915160009288169163dd62ed3e916044808301926020929190829003018186803b158015610fbd57600080fd5b505afa158015610fd1573d6000803e3d6000fd5b505050506040513d6020811015610fe757600080fd5b5051905080841161100357610ffe878787876134eb565b61110f565b600954604080517fce55c85200000000000000000000000000000000000000000000000000000000815283870360048201819052600160a060020a038a8116602484015292519093600093169163ce55c852916044808301926020929190829003018186803b15801561107557600080fd5b505afa158015611089573d6000803e3d6000fd5b505050506040513d602081101561109f57600080fd5b505190506110ad8982613687565b1515611103576040805160e560020a62461bcd02815260206004820152601d60248201527f544d3a20417070726f76652061626f7665206461696c79206c696d6974000000604482015290519081900360640190fd5b610e0f898989896134eb565b505b505050505050565b8051600090604114611175576040805160e560020a62461bcd02815260206004820152601c60248201527f544d3a20696e76616c6964207369676e6174757265206c656e67746800000000604482015290519081900360640190fd5b60006111838484600061371f565b905061118f33826132c3565b15156111e5576040805160e560020a62461bcd02815260206004820152601260248201527f544d3a20496e76616c6964207369676e65720000000000000000000000000000604482015290519081900360640190fd5b5050604080517f697356616c69645369676e617475726528627974657333322c627974657329008152905190819003601f0190205b92915050565b8033600160a060020a03821614611281576040805160e560020a62461bcd02815260206004820152601960248201527f424d3a2063616c6c6572206d7573742062652077616c6c657400000000000000604482015290519081900360640190fd5b604080517f697356616c69645369676e61747572652862797465732c6279746573290000008152815190819003601d0181207f13da30b20000000000000000000000000000000000000000000000000000000082523060048301527bffffffffffffffffffffffffffffffffffffffffffffffffffffffff191660248201529051600160a060020a038416916313da30b291604480830192600092919082900301818387803b15801561133357600080fd5b505af1158015611347573d6000803e3d6000fd5b5050604080517f697356616c69645369676e617475726528627974657333322c627974657329008152815190819003601f0181207f13da30b20000000000000000000000000000000000000000000000000000000082523060048301527bffffffffffffffffffffffffffffffffffffffffffffffffffffffff191660248201529051600160a060020a03861693506313da30b29250604480830192600092919082900301818387803b1580156113fd57600080fd5b505af1158015611411573d6000803e3d6000fd5b5050600a54600160a060020a031615159150611437905057611432826137ca565b6117d6565b600a54604080517f43cd5c7e000000000000000000000000000000000000000000000000000000008152600160a060020a038581166004830152915160009392909216916343cd5c7e91602480820192602092909190829003018186803b1580156114a157600080fd5b505afa1580156114b5573d6000803e3d6000fd5b505050506040513d60208110156114cb57600080fd5b5051600a54604080517fa0aec105000000000000000000000000000000000000000000000000000000008152600160a060020a03878116600483015282519495506000948594919091169263a0aec1059260248082019391829003018186803b15801561153757600080fd5b505afa15801561154b573d6000803e3d6000fd5b505050506040513d604081101561156157600080fd5b508051602090910151909250905082158015611585575067ffffffffffffffff8116155b1561159b57611593856137ca565b5050506117d6565b818314156115e257600160a060020a038516600090815260036020526040902080546fffffffffffffffffffffffffffffffff19166001608060020a03851617905561167c565b604080516060810182526001608060020a038086168252848116602080840191825267ffffffffffffffff808716858701908152600160a060020a038c1660009081526003909352959091209351845492518416608060020a029084166fffffffffffffffffffffffffffffffff19909316929092179092161782559151600190910180549190921667ffffffffffffffff199091161790555b600a54604080517f7cb8f8ba000000000000000000000000000000000000000000000000000000008152600160a060020a03888116600483015282516000948594921692637cb8f8ba926024808301939192829003018186803b1580156116e257600080fd5b505afa1580156116f6573d6000803e3d6000fd5b505050506040513d604081101561170c57600080fd5b50805160209091015190925090504267ffffffffffffffff8216111561110f576040805180820190915280611747878563ffffffff61389616565b6001608060020a03908116825267ffffffffffffffff938416602092830152600160a060020a038a166000908152600383526040902083516002909101805494909301516fffffffffffffffffffffffffffffffff1990941691161777ffffffffffffffff000000000000000000000000000000001916608060020a9290931691909102919091179055505050505b5050565b600080858560405160200180838380828437808301925050509250505060405160208183030381529060405280519060200120905061184f8185858080601f01602080910402602001604051908101604052809392919081815260200183838082843760009201919091525061111992505050565b5050604080517f697356616c69645369676e61747572652862797465732c6279746573290000008152905190819003601d01902090505b949350505050565b600160a060020a031660009081526002602052604090205490565b85333014806118bd57506118bd81336132c3565b15156118fd5760405160e560020a62461bcd0281526004018080602001828103825260238152602001806145fc6023913960400191505060405180910390fd5b6001546040805160e260020a631293efbb028152600160a060020a03808b16600483015291518a939290921691634a4fbeec91602480820192602092909190829003018186803b15801561195057600080fd5b505afa158015611964573d6000803e3d6000fd5b505050506040513d602081101561197a57600080fd5b5051156119bf576040805160e560020a62461bcd02815260206004820152601b602482015260008051602061458d833981519152604482015290519081900360640190fd5b6119c98887612d46565b15611a1157610bcf8888888888888080601f0160208091040260200160405190810160405280939291908181526020018383808284376000920191909152506138ab92505050565b6000600160a060020a03881673eeeeeeeeeeeeeeeeeeeeeeeeeeeeeeeeeeeeeeee14611ad557600954604080517fce55c85200000000000000000000000000000000000000000000000000000000815260048101899052600160a060020a038b811660248301529151919092169163ce55c852916044808301926020929190829003018186803b158015611aa457600080fd5b505afa158015611ab8573d6000803e3d6000fd5b505050506040513d6020811015611ace57600080fd5b5051611ad7565b855b9050611ae38982613687565b15611b2b57610cb88989898989898080601f0160208091040260200160405190810160405280939291908181526020018383808284376000920191909152506138ab92505050565b600080611b7360008c8c8c8c8c8c8080601f016020809104026020016040519081016040528093929190818152602001838380828437600092019190915250613a4692505050565b9150915080828c600160a060020a03167fc63146cfd39cd6097f6e314e8595c4554faf95175b45c6215517903c12e765d98d8d8d8d8d6040518086600160a060020a0316600160a060020a0316815260200185600160a060020a0316600160a060020a03168152602001848152602001806020018281038252848482818152602001925080828437600083820152604051601f909101601f19169092018290039850909650505050505050a45050505050505050505050565b600160a060020a038116600090815260036020526040812080546001820154611c74916001608060020a0380821692608060020a909204169067ffffffffffffffff16613c2c565b6001608060020a03169392505050565b8133301480611c985750611c9881336132c3565b1515611cd85760405160e560020a62461bcd0281526004018080602001828103825260238152602001806145fc6023913960400191505060405180910390fd5b6001546040805160e260020a631293efbb028152600160a060020a038087166004830152915186939290921691634a4fbeec91602480820192602092909190829003018186803b158015611d2b57600080fd5b505afa158015611d3f573d6000803e3d6000fd5b505050506040513d6020811015611d5557600080fd5b505115611d9a576040805160e560020a62461bcd02815260206004820152601b602482015260008051602061458d833981519152604482015290519081900360640190fd5b611da48484612d46565b15611df9576040805160e560020a62461bcd02815260206004820152601e60248201527f54543a2074617267657420616c72656164792077686974656c69737465640000604482015290519081900360640190fd5b6000611e1060065442613c6490919063ffffffff16565b600854604080517f80bfbe68000000000000000000000000000000000000000000000000000000008152600160a060020a03898116600483015288811660248301526044820185905291519394509116916380bfbe689160648082019260009290919082900301818387803b158015611e8857600080fd5b505af1158015611e9c573d6000803e3d6000fd5b50506040805167ffffffffffffffff851681529051600160a060020a038089169450891692507f1f57f9641d3e8733ed672fef5ac85464bd7215ef2f21e83428e8408248b13dcd9181900360200190a35050505050565b8133301480611f075750611f0781336132c3565b1515611f475760405160e560020a62461bcd0281526004018080602001828103825260238152602001806145fc6023913960400191505060405180910390fd5b600054604080517f0bcd4ebb000000000000000000000000000000000000000000000000000000008152600160a060020a03858116600483015291519190921691630bcd4ebb916024808301926020929190829003018186803b158015611fad57600080fd5b505afa158015611fc1573d6000803e3d6000fd5b505050506040513d6020811015611fd757600080fd5b5051151561202f576040805160e560020a62461bcd02815260206004820152601c60248201527f424d3a206d6f64756c65206973206e6f74207265676973746572656400000000604482015290519081900360640190fd5b604080517f1f17732d000000000000000000000000000000000000000000000000000000008152600160a060020a03848116600483015260016024830152915191851691631f17732d9160448082019260009290919082900301818387803b15801561209a57600080fd5b505af115801561110f573d6000803e3d6000fd5b6001546040805160e260020a631293efbb028152600160a060020a03808b16600483015291518a939290921691634a4fbeec91602480820192602092909190829003018186803b15801561210157600080fd5b505afa158015612115573d6000803e3d6000fd5b505050506040513d602081101561212b57600080fd5b505115612170576040805160e560020a62461bcd02815260206004820152601b602482015260008051602061458d833981519152604482015290519081900360640190fd5b6000808888888888886040516020018088600081111561218c57fe5b60ff167f010000000000000000000000000000000000000000000000000000000000000002815260010187600160a060020a0316600160a060020a03166c0100000000000000000000000002815260140186600160a060020a0316600160a060020a03166c01000000000000000000000000028152601401858152602001848480828437808301925050508281526020019750505050505050506040516020818303038152906040528051906020012090506000600560008b600160a060020a0316600160a060020a0316815260200190815260200160002060000160008381526020019081526020016000205490506000811115156122d6576040805160e560020a62461bcd02815260206004820152601c60248201527f54543a20756e6b6e6f776e2070656e64696e67207472616e7366657200000000604482015290519081900360640190fd5b60006122ed60075483613c6490919063ffffffff16565b90504282111580156122ff5750804211155b151561233f5760405160e560020a62461bcd02815260040180806020018281038252602c8152602001806145d0602c913960400191505060405180910390fd5b600160a060020a038b1660009081526005602090815260408083208684528252808320929092558151601f89018290048202810182019092528782526123a8918d918d918d918d91908d908d90819084018382808284376000920191909152506138ab92505050565b6040518390600160a060020a038d16907f53d984c4cd3917405bdcc3baabad7c1269dd3baf7c2c53ca571d8d7de9629bc990600090a35050505050505050505050565b60008060006123f984611c2c565b600160a060020a0385166000908152600360205260409020600201805491925090608060020a900467ffffffffffffffff16421115612442578193504262015180019250612477565b805467ffffffffffffffff608060020a82041693506001608060020a03168211156124775780546001608060020a0316820393505b5050915091565b60065481565b600a54600160a060020a031681565b600854600160a060020a031681565b604080517f70a082310000000000000000000000000000000000000000000000000000000081523060048201529051600091600160a060020a038416916370a0823191602480820192602092909190829003018186803b15801561250557600080fd5b505afa158015612519573d6000803e3d6000fd5b505050506040513d602081101561252f57600080fd5b505160008054604080517fa9059cbb000000000000000000000000000000000000000000000000000000008152600160a060020a0392831660048201526024810185905290519394509085169263a9059cbb92604480840193602093929083900390910190829087803b1580156125a557600080fd5b505af11580156125b9573d6000803e3d6000fd5b505050506040513d60208110156125cf57600080fd5b50505050565b600160a060020a0381166000908152600360205260408120600181015482919067ffffffffffffffff16421061260d57600080612631565b80546001820154608060020a9091046001608060020a03169067ffffffffffffffff165b9250925050915091565b803330148061264f575061264f81336132c3565b151561268f5760405160e560020a62461bcd0281526004018080602001828103825260238152602001806145fc6023913960400191505060405180910390fd5b6001546040805160e260020a631293efbb028152600160a060020a038086166004830152915185939290921691634a4fbeec91602480820192602092909190829003018186803b1580156126e257600080fd5b505afa1580156126f6573d6000803e3d6000fd5b505050506040513d602081101561270c57600080fd5b505115612751576040805160e560020a62461bcd02815260206004820152601b602482015260008051602061458d833981519152604482015290519081900360640190fd5b61275d83600654613c76565b505050565b6000805a905060006127b2308c60008d8d8080601f0160208091040260200160405190810160405280939291908181526020018383808284376000920191909152508f92508c91508b9050613c88565b90506127bf8b8983613dcb565b1515612815576040805160e560020a62461bcd02815260206004820152601560248201527f524d3a204475706c696361746520726571756573740000000000000000000000604482015290519081900360640190fd5b6128558b8b8b8080601f016020809104026020016040519081016040528093929190818152602001838380828437600092019190915250613dd792505050565b15156128955760405160e560020a62461bcd02815260040180806020018281038252604a815260200180614543604a913960600191505060405180910390fd5b60006128d78c8c8c8080601f016020809104026020016040519081016040528093929190818152602001838380828437600092019190915250613e4b92505050565b9050604181028714156129ef576128f08c868884613e53565b156129ef5780158061297357506129738c8c8c8080601f01602080910402602001604051908101604052809392919081815260200183838082843760009201919091525050604080516020601f8f018190048102820181019092528d815288935091508d908d9081908401838280828437600092019190915250613f4292505050565b156129ef5730600160a060020a03168b8b604051808383808284376040519201945060009350909150508083038183865af19150503d80600081146129d4576040519150601f19603f3d011682016040523d82523d6000602084013e6129d9565b606091505b5050809450506129ef8c5a850388888533613f67565b60408051838152905185151591600160a060020a038f16917f6bb0b384ce772133df63560651bc8c727c53306cec1d51e2cbf8ea35fb8f2ec19181900360200190a350505098975050505050505050565b8133301480612a545750612a5481336132c3565b1515612a945760405160e560020a62461bcd0281526004018080602001828103825260238152602001806145fc6023913960400191505060405180910390fd5b6001546040805160e260020a631293efbb028152600160a060020a038087166004830152915186939290921691634a4fbeec91602480820192602092909190829003018186803b158015612ae757600080fd5b505afa158015612afb573d6000803e3d6000fd5b505050506040513d6020811015612b1157600080fd5b505115612b56576040805160e560020a62461bcd02815260206004820152601b602482015260008051602061458d833981519152604482015290519081900360640190fd5b6125cf8484600654613fc6565b8133301480612b775750612b7781336132c3565b1515612bb75760405160e560020a62461bcd0281526004018080602001828103825260238152602001806145fc6023913960400191505060405180910390fd5b6001546040805160e260020a631293efbb028152600160a060020a038087166004830152915186939290921691634a4fbeec91602480820192602092909190829003018186803b158015612c0a57600080fd5b505afa158015612c1e573d6000803e3d6000fd5b505050506040513d6020811015612c3457600080fd5b505115612c79576040805160e560020a62461bcd02815260206004820152601b602482015260008051602061458d833981519152604482015290519081900360640190fd5b600160a060020a038416600090815260056020908152604080832086845290915281205411612cf2576040805160e560020a62461bcd02815260206004820152601a60248201527f54543a20756e6b6e6f776e2070656e64696e6720616374696f6e000000000000604482015290519081900360640190fd5b600160a060020a0384166000818152600560209081526040808320878452909152808220829055518592917f2914460f2e2359d06bcda666d815164a8e77d104644dfbe6360885abfa2da59c91a350505050565b600854604080517f13f4a0ea000000000000000000000000000000000000000000000000000000008152600160a060020a03858116600483015284811660248301529151600093849316916313f4a0ea916044808301926020929190829003018186803b158015612db657600080fd5b505afa158015612dca573d6000803e3d6000fd5b505050506040513d6020811015612de057600080fd5b50519050600081118015611886575042119392505050565b600954600160a060020a031681565b60026020526000908152604090205481565b7fd490da4d0000000000000000000000000000000000000000000000000000000090565b600160a060020a039091166000908152600560209081526040808320938352929052205490565b60045481565b8133301480612e7e5750612e7e81336132c3565b1515612ebe5760405160e560020a62461bcd0281526004018080602001828103825260238152602001806145fc6023913960400191505060405180910390fd5b6001546040805160e260020a631293efbb028152600160a060020a038087166004830152915186939290921691634a4fbeec91602480820192602092909190829003018186803b158015612f1157600080fd5b505afa158015612f25573d6000803e3d6000fd5b505050506040513d6020811015612f3b57600080fd5b505115612f80576040805160e560020a62461bcd02815260206004820152601b602482015260008051602061458d833981519152604482015290519081900360640190fd5b612f8a8484612d46565b1515612fe0576040805160e560020a62461bcd02815260206004820152601a60248201527f54543a20746172676574206e6f742077686974656c6973746564000000000000604482015290519081900360640190fd5b600854604080517f80bfbe68000000000000000000000000000000000000000000000000000000008152600160a060020a038781166004830152868116602483015260006044830181905292519316926380bfbe689260648084019391929182900301818387803b15801561305457600080fd5b505af1158015613068573d6000803e3d6000fd5b5050604051600160a060020a038087169350871691507fd288ab5da2e1f37cf384a1565a3f905ad289b092fbdd31950dbbfef148c04f8890600090a350505050565b6000806130b683611c2c565b6001608060020a03149392505050565b84333014806130da57506130da81336132c3565b151561311a5760405160e560020a62461bcd0281526004018080602001828103825260238152602001806145fc6023913960400191505060405180910390fd5b6001546040805160e260020a631293efbb028152600160a060020a03808a166004830152915189939290921691634a4fbeec91602480820192602092909190829003018186803b15801561316d57600080fd5b505afa158015613181573d6000803e3d6000fd5b505050506040513d602081101561319757600080fd5b5051156131dc576040805160e560020a62461bcd02815260206004820152601b602482015260008051602061458d833981519152604482015290519081900360640190fd5b6131e68787613348565b6131f08787612d46565b1561323757610ffe87878787878080601f0160208091040260200160405190810160405280939291908181526020018383808284376000920191909152506135bf92505050565b6132418786613687565b15156132815760405160e560020a62461bcd0281526004018080602001828103825260238152602001806145ad6023913960400191505060405180910390fd5b61110f87878787878080601f0160208091040260200160405190810160405280939291908181526020018383808284376000920191909152506135bf92505050565b600081600160a060020a031683600160a060020a0316638da5cb5b6040518163ffffffff1660e060020a02815260040160206040518083038186803b15801561330b57600080fd5b505afa15801561331f573d6000803e3d6000fd5b505050506040513d602081101561333557600080fd5b5051600160a060020a0316149392505050565b81600160a060020a031681600160a060020a0316141580156133ec575081600160a060020a031663d6eb1bbf826040518263ffffffff1660e060020a0281526004018082600160a060020a0316600160a060020a0316815260200191505060206040518083038186803b1580156133be57600080fd5b505afa1580156133d2573d6000803e3d6000fd5b505050506040513d60208110156133e857600080fd5b5051155b80156134955750600954604080517f837479c9000000000000000000000000000000000000000000000000000000008152600160a060020a0384811660048301529151919092169163837479c9916024808301926020929190829003018186803b15801561345957600080fd5b505afa15801561346d573d6000803e3d6000fd5b505050506040513d602081101561348357600080fd5b505115806134955750613495826130aa565b15156117d6576040805160e560020a62461bcd02815260206004820152601660248201527f544d3a20466f7262696464656e20636f6e747261637400000000000000000000604482015290519081900360640190fd5b60408051600160a060020a038416602482015260448082018490528251808303909101815260649091019091526020810180517bffffffffffffffffffffffffffffffffffffffffffffffffffffffff167f095ea7b30000000000000000000000000000000000000000000000000000000017905261356d85856000846140ef565b5060408051838152600160a060020a038581166020830152825181881693918916927fdc47705473b4a899de6e16a740ecc86f2a65dc7dbb9eadd0a06ce5421a44e23092908290030190a35050505050565b6135cb848484846140ef565b5082600160a060020a031684600160a060020a03167fbfbd7fb6c6d7dd1ef01d18a7e98333f084363d82d5ce600328e8b941a53d665484846040518083815260200180602001828103825283818151815260200191508051906020019080838360005b8381101561364657818101518382015260200161362e565b50505050905090810190601f1680156136735780820380516001836020036101000a031916815260200191505b50935050505060405180910390a350505050565b60008115156136985750600161121a565b600160a060020a0383166000908152600360205260408120805460018201549192916136e3916001608060020a0380821692608060020a909204169067ffffffffffffffff16613c2c565b90506136f985826001608060020a031686614372565b15613714576137098582866143fc565b60019250505061121a565b506000949350505050565b6041808202830160208101516040820151919092015160009260ff9190911691601b83148061375157508260ff16601c145b151561375c57600080fd5b604080516000815260208082018084528a905260ff8616828401526060820185905260808201849052915160019260a0808401939192601f1981019281900390910190855afa1580156137b3573d6000803e3d6000fd5b5050506020604051035193505050505b9392505050565b8033600160a060020a0382161461382b576040805160e560020a62461bcd02815260206004820152601960248201527f424d3a2063616c6c6572206d7573742062652077616c6c657400000000000000604482015290519081900360640190fd5b600160a060020a038216600090815260036020526040902080546001608060020a03161580156138675750600181015467ffffffffffffffff16155b1561275d5760045481546fffffffffffffffffffffffffffffffff19166001608060020a039091161790555050565b6000828211156138a557600080fd5b50900390565b600160a060020a03841673eeeeeeeeeeeeeeeeeeeeeeeeeeeeeeeeeeeeeeee14156138f2576138ec85848460206040519081016040528060008152506140ef565b50613977565b60408051600160a060020a038516602482015260448082018590528251808303909101815260649091019091526020810180517bffffffffffffffffffffffffffffffffffffffffffffffffffffffff167fa9059cbb0000000000000000000000000000000000000000000000000000000017905261397486866000846140ef565b50505b8184600160a060020a031686600160a060020a03167fd5c97f2e041b2046be3b4337472f05720760a198f4d7d84980b7155eec7cca6f86856040518083600160a060020a0316600160a060020a0316815260200180602001828103825283818151815260200191508051906020019080838360005b83811015613a045781810151838201526020016139ec565b50505050905090810190601f168015613a315780820380516001836020036101000a031916815260200191505b50935050505060405180910390a45050505050565b60008087868686864360405160200180876000811115613a6257fe5b60ff167f010000000000000000000000000000000000000000000000000000000000000002815260010186600160a060020a0316600160a060020a03166c0100000000000000000000000002815260140185600160a060020a0316600160a060020a03166c0100000000000000000000000002815260140184815260200183805190602001908083835b60208310613b0b5780518252601f199092019160209182019101613aec565b6001836020036101000a03801982511681845116808217855250505050505090500182815260200196505050505050506040516020818303038152906040528051906020012091506005600088600160a060020a0316600160a060020a031681526020019081526020016000206000016000838152602001908152602001600020546000141515613be6576040805160e560020a62461bcd02815260206004820152601c60248201527f544d3a206475706c69636174652070656e64696e6720616374696f6e00000000604482015290519081900360640190fd5b600654613bfa90429063ffffffff613c6416565b600160a060020a0390971660009081526005602090815260408083208584529091529020879055509694955050505050565b6000808267ffffffffffffffff16118015613c505750428267ffffffffffffffff16105b15613c5c5750816137c3565b509192915050565b6000828201838110156137c357600080fd5b6117d6826001608060020a0383613fc6565b6040517f190000000000000000000000000000000000000000000000000000000000000060208083018281526000602185018190526c01000000000000000000000000600160a060020a03808e16820260228801528c16026036860152604a85018a90528851909485938d938d938d938d938d938d938d939192606a909201918701908083835b60208310613d2e5780518252601f199092019160209182019101613d0f565b51815160209384036101000a600019018019909216911617905292019586525084810193909352506040808401919091528051808403820181526060840182528051908301207f19457468657265756d205369676e6564204d6573736167653a0a3332000000006080850152609c808501919091528151808503909101815260bc909301905281519101209e9d5050505050505050505050505050565b600061188684846144c9565b60006024825110151515613e35576040805160e560020a62461bcd02815260206004820152601660248201527f524d3a20496e76616c6964206461746157616c6c657400000000000000000000604482015290519081900360640190fd5b5060240151600160a060020a0391821691161490565b600192915050565b60008083118015613e645750600082115b8015613f2a575082840285600160a060020a0316311080613e975750613e9585613e8d87611c2c565b858702614372565b155b80613f2a5750604080517fd6eb1bbf0000000000000000000000000000000000000000000000000000000081523060048201529051600160a060020a0387169163d6eb1bbf916024808301926020929190829003018186803b158015613efc57600080fd5b505afa158015613f10573d6000803e3d6000fd5b505050506040513d6020811015613f2657600080fd5b5051155b15613f3757506000611886565b506001949350505050565b600080613f518484600061371f565b9050613f5d86826132c3565b9695505050505050565b618f088501600085118015613f7c5750600083115b8015613f885750838111155b1561110f573a851115613f9c573a02613f9f565b84025b613fa98782613687565b50610e1187838360206040519081016040528060008152506140ef565b600160a060020a0383166000908152600360205260408120600181015490919067ffffffffffffffff168110801561400d575060018201544267ffffffffffffffff909116105b6140215781546001608060020a0316614034565b8154608060020a90046001608060020a03165b82546001608060020a03868116608060020a028184166fffffffffffffffffffffffffffffffff1990931692909217161783559050614079428463ffffffff613c6416565b60018301805467ffffffffffffffff191667ffffffffffffffff929092169190911790556140a74284613c64565b67ffffffffffffffff168486600160a060020a03167f8a747eae44b6307d1b112c127968367d02d9f52ffef8533b3e899983ff2b1d4a60405160405180910390a45050505050565b6060600085600160a060020a03168585856040516024018084600160a060020a0316600160a060020a0316815260200183815260200180602001828103825283818151815260200191508051906020019080838360005b8381101561415e578181015183820152602001614146565b50505050905090810190601f16801561418b5780820380516001836020036101000a031916815260200191505b5060408051601f198184030181529181526020820180517bffffffffffffffffffffffffffffffffffffffffffffffffffffffff167f8f6f033200000000000000000000000000000000000000000000000000000000178152905182519297509550859450925090508083835b602083106142175780518252601f1990920191602091820191016141f8565b6001836020036101000a0380198251168184511680821785525050505050509050019150506000604051808303816000865af19150503d8060008114614279576040519150601f19603f3d011682016040523d82523d6000602084013e61427e565b606091505b5092509050808015614291575060008251115b156142fe578180602001905160208110156142ab57600080fd5b8101908080516401000000008111156142c357600080fd5b820160208101848111156142d657600080fd5b81516401000000008111828201871017156142f057600080fd5b509095506143699350505050565b600082511115614312573d6000803e3d6000fd5b801515614369576040805160e560020a62461bcd02815260206004820152601a60248201527f424d3a2077616c6c657420696e766f6b65207265766572746564000000000000604482015290519081900360640190fd5b50949350505050565b60006001608060020a0383141561438b575060016137c3565b600160a060020a0384166000908152600360205260409020600201805442608060020a90910467ffffffffffffffff1610156143cc575050818111156137c3565b80546001608060020a0316830184108015906143f4575080546001608060020a031683810110155b9150506137c3565b6001608060020a038281161461275d57600160a060020a0383166000908152600360205260409020600201805442608060020a90910467ffffffffffffffff16101561449b57805477ffffffffffffffff000000000000000000000000000000001916608060020a42620151800167ffffffffffffffff1602176fffffffffffffffffffffffffffffffff19166001608060020a0383161781556125cf565b80546001608060020a038082168401166fffffffffffffffffffffffffffffffff1990911617815550505050565b600160a060020a03821660009081526002602052604081205482116144f05750600061121a565b608060020a6fffffffffffffffffffffffffffffffff19831604436127100181111561452057600091505061121a565b5050600160a060020a039190911660009081526002602052604090205560019056fe524d3a207468652077616c6c657420617574686f72697a656420697320646966666572656e74207468656e2074686520746172676574206f66207468652072656c617965642064617461424d3a2077616c6c6574206d75737420626520756e6c6f636b65640000000000544d3a2043616c6c20636f6e74726163742061626f7665206461696c79206c696d697454543a207472616e73666572206f757473696465206f662074686520657865637574696f6e2077696e646f77424d3a206d75737420626520616e206f776e657220666f72207468652077616c6c6574a165627a7a7230582042976703d82186a14b652caccc5e2ef6e379f30530465b77c86b6138953eac8a0029",
  "source": "pragma solidity ^0.5.4;\nimport \"../wallet/BaseWallet.sol\";\nimport \"./common/BaseModule.sol\";\nimport \"./common/RelayerModule.sol\";\nimport \"./common/OnlyOwnerModule.sol\";\nimport \"./common/BaseTransfer.sol\";\nimport \"./common/LimitManager.sol\";\nimport \"../exchange/TokenPriceProvider.sol\";\nimport \"../storage/TransferStorage.sol\";\nimport \"../exchange/ERC20.sol\";\n\n/**\n * @title TransferManager\n * @dev Module to transfer and approve tokens (ETH or ERC20) or data (contract call) based on a security context (daily limit, whitelist, etc).\n * This module is the V2 of TokenTransfer.\n * @author Julien Niset - <julien@argent.xyz>\n */\ncontract TransferManager is BaseModule, RelayerModule, OnlyOwnerModule, BaseTransfer, LimitManager {\n\n    bytes32 constant NAME = \"TransferManager\";\n\n    bytes4 private constant ERC721_ISVALIDSIGNATURE_BYTES = bytes4(keccak256(\"isValidSignature(bytes,bytes)\"));\n    bytes4 private constant ERC721_ISVALIDSIGNATURE_BYTES32 = bytes4(keccak256(\"isValidSignature(bytes32,bytes)\"));\n\n    enum ActionType { Transfer }\n\n    using SafeMath for uint256;\n\n    struct TokenManagerConfig {\n        // Mapping between pending action hash and their timestamp\n        mapping (bytes32 => uint256) pendingActions;\n    }\n\n    // wallet specific storage\n    mapping (address => TokenManagerConfig) internal configs;\n\n    // The security period\n    uint256 public securityPeriod;\n    // The execution window\n    uint256 public securityWindow;\n    // The Token storage\n    TransferStorage public transferStorage;\n    // The Token price provider\n    TokenPriceProvider public priceProvider;\n    // The previous limit manager needed to migrate the limits\n    LimitManager public oldLimitManager;\n\n    // *************** Events *************************** //\n\n    event AddedToWhitelist(address indexed wallet, address indexed target, uint64 whitelistAfter);\n    event RemovedFromWhitelist(address indexed wallet, address indexed target);\n    event PendingTransferCreated(address indexed wallet, bytes32 indexed id, uint256 indexed executeAfter,\n        address token, address to, uint256 amount, bytes data);\n    event PendingTransferExecuted(address indexed wallet, bytes32 indexed id);\n    event PendingTransferCanceled(address indexed wallet, bytes32 indexed id);\n\n    // *************** Constructor ********************** //\n\n    constructor(\n        ModuleRegistry _registry,\n        TransferStorage _transferStorage,\n        GuardianStorage _guardianStorage,\n        address _priceProvider,\n        uint256 _securityPeriod,\n        uint256 _securityWindow,\n        uint256 _defaultLimit,\n        LimitManager _oldLimitManager\n    )\n        BaseModule(_registry, _guardianStorage, NAME)\n        LimitManager(_defaultLimit)\n        public\n    {\n        transferStorage = _transferStorage;\n        priceProvider = TokenPriceProvider(_priceProvider);\n        securityPeriod = _securityPeriod;\n        securityWindow = _securityWindow;\n        oldLimitManager = _oldLimitManager;\n    }\n\n    /**\n     * @dev Inits the module for a wallet by setting up the isValidSignature (EIP 1271)\n     * static call redirection from the wallet to the module and copying all the parameters\n     * of the daily limit from the previous implementation of the LimitManager module.\n     * @param _wallet The target wallet.\n     */\n    function init(BaseWallet _wallet) public onlyWallet(_wallet) {\n\n        // setup static calls\n        _wallet.enableStaticCall(address(this), ERC721_ISVALIDSIGNATURE_BYTES);\n        _wallet.enableStaticCall(address(this), ERC721_ISVALIDSIGNATURE_BYTES32);\n\n        // setup default limit for new deployment\n        if(address(oldLimitManager) == address(0)) {\n            super.init(_wallet);\n            return;\n        }\n        // get limit from previous LimitManager\n        uint256 current = oldLimitManager.getCurrentLimit(_wallet);\n        (uint256 pending, uint64 changeAfter) = oldLimitManager.getPendingLimit(_wallet);\n        // setup default limit for new wallets\n        if(current == 0 && changeAfter == 0) {\n            super.init(_wallet);\n            return;\n        }\n        // migrate existing limit for existing wallets\n        if(current == pending) {\n            limits[address(_wallet)].limit.current = uint128(current);\n        }\n        else {\n            limits[address(_wallet)].limit = Limit(uint128(current), uint128(pending), changeAfter);\n        }\n        // migrate daily pending if we are within a rolling period\n        (uint256 unspent, uint64 periodEnd) = oldLimitManager.getDailyUnspent(_wallet);\n        // solium-disable-next-line security/no-block-members\n        if(periodEnd > now) {\n            limits[address(_wallet)].dailySpent = DailySpent(uint128(current.sub(unspent)), periodEnd);\n        }\n    }\n\n    // *************** External/Public Functions ********************* //\n\n    /**\n    * @dev lets the owner transfer tokens (ETH or ERC20) from a wallet.\n    * @param _wallet The target wallet.\n    * @param _token The address of the token to transfer.\n    * @param _to The destination address\n    * @param _amount The amoutn of token to transfer\n    * @param _data The data for the transaction\n    */\n    function transferToken(\n        BaseWallet _wallet,\n        address _token,\n        address _to,\n        uint256 _amount,\n        bytes calldata _data\n    )\n        external\n        onlyWalletOwner(_wallet)\n        onlyWhenUnlocked(_wallet)\n    {\n        if(isWhitelisted(_wallet, _to)) {\n            // transfer to whitelist\n            doTransfer(_wallet, _token, _to, _amount, _data);\n        }\n        else {\n            uint256 etherAmount = (_token == ETH_TOKEN) ? _amount : priceProvider.getEtherValue(_amount, _token);\n            if (checkAndUpdateDailySpent(_wallet, etherAmount)) {\n                // transfer under the limit\n                doTransfer(_wallet, _token, _to, _amount, _data);\n            }\n            else {\n                // transfer above the limit\n                (bytes32 id, uint256 executeAfter) = addPendingAction(ActionType.Transfer, _wallet, _token, _to, _amount, _data);\n                emit PendingTransferCreated(address(_wallet), id, executeAfter, _token, _to, _amount, _data);\n            }\n        }\n    }\n\n    /**\n    * @dev lets the owner approve an allowance of ERC20 tokens for a spender (dApp).\n    * @param _wallet The target wallet.\n    * @param _token The address of the token to transfer.\n    * @param _spender The address of the spender\n    * @param _amount The amount of tokens to approve\n    */\n    function approveToken(\n        BaseWallet _wallet,\n        address _token,\n        address _spender,\n        uint256 _amount\n    )\n        external\n        onlyWalletOwner(_wallet)\n        onlyWhenUnlocked(_wallet)\n    {\n        if(isWhitelisted(_wallet, _spender)) {\n            // approve to whitelist\n            doApproveToken(_wallet, _token, _spender, _amount);\n        }\n        else {\n            // get current alowance\n            uint256 currentAllowance = ERC20(_token).allowance(address(_wallet), _spender);\n            if(_amount <= currentAllowance) {\n                // approve if we reduce the allowance\n                doApproveToken(_wallet, _token, _spender, _amount);\n            }\n            else {\n                // check if delta is under the limit\n                uint delta = _amount - currentAllowance;\n                uint256 deltaInEth = priceProvider.getEtherValue(delta, _token);\n                require(checkAndUpdateDailySpent(_wallet, deltaInEth), \"TM: Approve above daily limit\");\n                // approve if under the limit\n                doApproveToken(_wallet, _token, _spender, _amount);\n            }\n        }\n    }\n\n    /**\n    * @dev lets the owner call a contract.\n    * @param _wallet The target wallet.\n    * @param _contract The address of the contract.\n    * @param _value The amount of ETH to transfer as part of call\n    * @param _data The encoded method data\n    */\n    function callContract(\n        BaseWallet _wallet,\n        address _contract,\n        uint256 _value,\n        bytes calldata _data\n    )\n        external\n        onlyWalletOwner(_wallet)\n        onlyWhenUnlocked(_wallet)\n    {\n        // Make sure we don't call a module, the wallet itself, or a supported ERC20\n        authoriseContractCall(_wallet, _contract);\n\n        if(isWhitelisted(_wallet, _contract)) {\n            // call to whitelist\n            doCallContract(_wallet, _contract, _value, _data);\n        }\n        else {\n            require(checkAndUpdateDailySpent(_wallet, _value), \"TM: Call contract above daily limit\");\n            // call under the limit\n            doCallContract(_wallet, _contract, _value, _data);\n        }\n    }\n\n    /**\n    * @dev lets the owner do an ERC20 approve followed by a call to a contract.\n    * We assume that the contract will pull the tokens and does not require ETH.\n    * @param _wallet The target wallet.\n    * @param _token The token to approve.\n    * @param _contract The address of the contract.\n    * @param _amount The amount of ERC20 tokens to approve.\n    * @param _data The encoded method data\n    */\n    function approveTokenAndCallContract(\n        BaseWallet _wallet,\n        address _token,\n        address _contract,\n        uint256 _amount,\n        bytes calldata _data\n    )\n        external\n        onlyWalletOwner(_wallet)\n        onlyWhenUnlocked(_wallet)\n    {\n        // Make sure we don't call a module, the wallet itself, or a supported ERC20\n        authoriseContractCall(_wallet, _contract);\n\n        if(isWhitelisted(_wallet, _contract)) {\n            doApproveToken(_wallet, _token, _contract, _amount);\n            doCallContract(_wallet, _contract, 0, _data);\n        }\n        else {\n            // get current alowance\n            uint256 currentAllowance = ERC20(_token).allowance(address(_wallet), _contract);\n            if(_amount <= currentAllowance) {\n                // no need to approve more\n                doCallContract(_wallet, _contract, 0, _data);\n            }\n            else {\n                // check if delta is under the limit\n                uint delta = _amount - currentAllowance;\n                uint256 deltaInEth = priceProvider.getEtherValue(delta, _token);\n                require(checkAndUpdateDailySpent(_wallet, deltaInEth), \"TM: Approve above daily limit\");\n                // approve if under the limit\n                doApproveToken(_wallet, _token, _contract, _amount);\n                doCallContract(_wallet, _contract, 0, _data);\n            }\n        }\n    }\n\n    /**\n     * @dev Adds an address to the whitelist of a wallet.\n     * @param _wallet The target wallet.\n     * @param _target The address to add.\n     */\n    function addToWhitelist(\n        BaseWallet _wallet,\n        address _target\n    )\n        external\n        onlyWalletOwner(_wallet)\n        onlyWhenUnlocked(_wallet)\n    {\n        require(!isWhitelisted(_wallet, _target), \"TT: target already whitelisted\");\n        // solium-disable-next-line security/no-block-members\n        uint256 whitelistAfter = now.add(securityPeriod);\n        transferStorage.setWhitelist(_wallet, _target, whitelistAfter);\n        emit AddedToWhitelist(address(_wallet), _target, uint64(whitelistAfter));\n    }\n\n    /**\n     * @dev Removes an address from the whitelist of a wallet.\n     * @param _wallet The target wallet.\n     * @param _target The address to remove.\n     */\n    function removeFromWhitelist(\n        BaseWallet _wallet,\n        address _target\n    )\n        external\n        onlyWalletOwner(_wallet)\n        onlyWhenUnlocked(_wallet)\n    {\n        require(isWhitelisted(_wallet, _target), \"TT: target not whitelisted\");\n        transferStorage.setWhitelist(_wallet, _target, 0);\n        emit RemovedFromWhitelist(address(_wallet), _target);\n    }\n\n    /**\n    * @dev Executes a pending transfer for a wallet.\n    * The method can be called by anyone to enable orchestration.\n    * @param _wallet The target wallet.\n    * @param _token The token of the pending transfer.\n    * @param _to The destination address of the pending transfer.\n    * @param _amount The amount of token to transfer of the pending transfer.\n    * @param _data The data associated to the pending transfer.\n    * @param _block The block at which the pending transfer was created.\n    */\n    function executePendingTransfer(\n        BaseWallet _wallet,\n        address _token,\n        address _to,\n        uint _amount,\n        bytes calldata _data,\n        uint _block\n    )\n        external\n        onlyWhenUnlocked(_wallet)\n    {\n        bytes32 id = keccak256(abi.encodePacked(ActionType.Transfer, _token, _to, _amount, _data, _block));\n        uint executeAfter = configs[address(_wallet)].pendingActions[id];\n        require(executeAfter > 0, \"TT: unknown pending transfer\");\n        uint executeBefore = executeAfter.add(securityWindow);\n        // solium-disable-next-line security/no-block-members\n        require(executeAfter <= now && now <= executeBefore, \"TT: transfer outside of the execution window\");\n        delete configs[address(_wallet)].pendingActions[id];\n        doTransfer(_wallet, _token, _to, _amount, _data);\n        emit PendingTransferExecuted(address(_wallet), id);\n    }\n\n    function cancelPendingTransfer(\n        BaseWallet _wallet,\n        bytes32 _id\n    )\n        external\n        onlyWalletOwner(_wallet)\n        onlyWhenUnlocked(_wallet)\n    {\n        require(configs[address(_wallet)].pendingActions[_id] > 0, \"TT: unknown pending action\");\n        delete configs[address(_wallet)].pendingActions[_id];\n        emit PendingTransferCanceled(address(_wallet), _id);\n    }\n\n    /**\n     * @dev Lets the owner of a wallet change its daily limit.\n     * The limit is expressed in ETH. Changes to the limit take 24 hours.\n     * @param _wallet The target wallet.\n     * @param _newLimit The new limit.\n     */\n    function changeLimit(BaseWallet _wallet, uint256 _newLimit) external onlyWalletOwner(_wallet) onlyWhenUnlocked(_wallet) {\n        changeLimit(_wallet, _newLimit, securityPeriod);\n    }\n\n    /**\n     * @dev Convenience method to disable the limit\n     * The limit is disabled by setting it to an arbitrary large value.\n     * @param _wallet The target wallet.\n     */\n    function disableLimit(BaseWallet _wallet) external onlyWalletOwner(_wallet) onlyWhenUnlocked(_wallet) {\n        disableLimit(_wallet, securityPeriod);\n    }\n\n    /**\n    * @dev Checks if an address is whitelisted for a wallet.\n    * @param _wallet The target wallet.\n    * @param _target The address.\n    * @return true if the address is whitelisted.\n    */\n    function isWhitelisted(BaseWallet _wallet, address _target) public view returns (bool _isWhitelisted) {\n        uint whitelistAfter = transferStorage.getWhitelist(_wallet, _target);\n        // solium-disable-next-line security/no-block-members\n        return whitelistAfter > 0 && whitelistAfter < now;\n    }\n\n    /**\n    * @dev Gets the info of a pending transfer for a wallet.\n    * @param _wallet The target wallet.\n    * @param _id The pending transfer ID.\n    * @return the epoch time at which the pending transfer can be executed.\n    */\n    function getPendingTransfer(BaseWallet _wallet, bytes32 _id) external view returns (uint64 _executeAfter) {\n        _executeAfter = uint64(configs[address(_wallet)].pendingActions[_id]);\n    }\n\n    /**\n    * @dev Implementation of EIP 1271.\n    * Should return whether the signature provided is valid for the provided data.\n    * @param _data Arbitrary length data signed on the behalf of address(this)\n    * @param _signature Signature byte array associated with _data\n    */\n    function isValidSignature(bytes calldata _data, bytes calldata _signature) external view returns (bytes4) {\n        bytes32 msgHash = keccak256(abi.encodePacked(_data));\n        isValidSignature(msgHash, _signature);\n        return ERC721_ISVALIDSIGNATURE_BYTES;\n    }\n\n    /**\n    * @dev Implementation of EIP 1271.\n    * Should return whether the signature provided is valid for the provided data.\n    * @param _msgHash Hash of a message signed on the behalf of address(this)\n    * @param _signature Signature byte array associated with _msgHash\n    */\n    function isValidSignature(bytes32 _msgHash, bytes memory _signature) public view returns (bytes4) {\n        require(_signature.length == 65, \"TM: invalid signature length\");\n        address signer = recoverSigner(_msgHash, _signature, 0);\n        require(isOwner(BaseWallet(msg.sender), signer), \"TM: Invalid signer\");\n        return ERC721_ISVALIDSIGNATURE_BYTES32;\n    }\n\n    // *************** Internal Functions ********************* //\n\n    /**\n     * @dev Creates a new pending action for a wallet.\n     * @param _action The target action.\n     * @param _wallet The target wallet.\n     * @param _token The target token for the action.\n     * @param _to The recipient of the action.\n     * @param _amount The amount of token associated to the action.\n     * @param _data The data associated to the action.\n     * @return the identifier for the new pending action and the time when the action can be executed\n     */\n    function addPendingAction(\n        ActionType _action,\n        BaseWallet _wallet,\n        address _token,\n        address _to,\n        uint _amount,\n        bytes memory _data\n    )\n        internal\n        returns (bytes32 id, uint256 executeAfter)\n    {\n        id = keccak256(abi.encodePacked(_action, _token, _to, _amount, _data, block.number));\n        require(configs[address(_wallet)].pendingActions[id] == 0, \"TM: duplicate pending action\");\n        // solium-disable-next-line security/no-block-members\n        executeAfter = now.add(securityPeriod);\n        configs[address(_wallet)].pendingActions[id] = executeAfter;\n    }\n\n    /**\n    * @dev Make sure a contract call is not trying to call a module, the wallet itself, or a supported ERC20.\n    * @param _wallet The target wallet.\n    * @param _contract The address of the contract.\n     */\n    function authoriseContractCall(BaseWallet _wallet, address _contract) internal view {\n        require(\n            _contract != address(_wallet) && // not the wallet itself\n            !_wallet.authorised(_contract) && // not an authorised module\n            (priceProvider.cachedPrices(_contract) == 0 || isLimitDisabled(_wallet)), // not an ERC20 listed in the provider (or limit disabled)\n            \"TM: Forbidden contract\");\n    }\n\n    // *************** Implementation of RelayerModule methods ********************* //\n\n    // Overrides refund to add the refund in the daily limit.\n    function refund(BaseWallet _wallet, uint _gasUsed, uint _gasPrice, uint _gasLimit, uint _signatures, address _relayer) internal {\n        // 21000 (transaction) + 7620 (execution of refund) + 7324 (execution of updateDailySpent) + 672 to log the event + _gasUsed\n        uint256 amount = 36616 + _gasUsed;\n        if(_gasPrice > 0 && _signatures > 0 && amount <= _gasLimit) {\n            if(_gasPrice > tx.gasprice) {\n                amount = amount * tx.gasprice;\n            }\n            else {\n                amount = amount * _gasPrice;\n            }\n            checkAndUpdateDailySpent(_wallet, amount);\n            invokeWallet(address(_wallet), _relayer, amount, EMPTY_BYTES);\n        }\n    }\n\n    // Overrides verifyRefund to add the refund in the daily limit.\n    function verifyRefund(BaseWallet _wallet, uint _gasUsed, uint _gasPrice, uint _signatures) internal view returns (bool) {\n        if(_gasPrice > 0 && _signatures > 0 && (\n            address(_wallet).balance < _gasUsed * _gasPrice ||\n            isWithinDailyLimit(_wallet, getCurrentLimit(_wallet), _gasUsed * _gasPrice) == false ||\n            _wallet.authorised(address(this)) == false\n        ))\n        {\n            return false;\n        }\n        return true;\n    }\n}",
  "sourcePath": "/Users/shubham/Documents/github/torus/torus-wallet/contracts/modules/TransferManager.sol",
  "compiler": {
    "name": "solc",
    "version": "0.5.4+commit.9549d8ff.Emscripten.clang",
    "optimizer": true,
    "runs": 200
  },
  "schemaVersion": "2.2.1",
  "updatedAt": "2019-12-31T04:34:37.195Z"
}